:100FED004C69676874206F6E204E756D204C6F6371
:100FFD006B204C4544210A004C69676874206F666C
:10100D0066204E756D204C6F636B204C4544210A54
:10101D00007A7A007374617274202E2E2E0A0012DB
:10102D00011001FF000008861A23756302000200FB
:10103D00010902270001010080F00904000003FFEF
:10104D0001020007058202200000070502022000B0
:10105D0000070581030800013000C300FFEC9FEC81
:10106D00FFECDFECDFECDFEC9FEC9FEC9FEC9FECFB
:02107D00FFEC86
:1011BF0041012400410126004101290041012C0079
:1011CF0047013500E1000000000801230001240061
:0C11DF0001270001260001680001250026
:10124F00E4F5E253E27F43E229F5E353E2BF53D1E2
:08125F00FB75D18043D101228F
:1000320043E10443E10243E10143D81FD2EAD2AFD4
:01004200229B
:1012130075EF0075EEA075E50075E40875EBCC7508
:10122300D41275D21275ED0075EC0075EA4075DCC9
:02123300022295
:100E8800900149120AA10000000090000312098491
:100E9800900149F090000212098490014AF09000F4
:100EA8000112098490014BF012096B90014CF0C2B9
:100EB800EC900149E0F8A3E0F9A3E0FAA3E0FB7F96
:100EC800007E1C7D4E7C0E120A03E47B10FAF9F8B2
:100ED800120A03900144120A95E47B0AFAF9F89081
:100EE8000144E0FCA3E0FDA3E0FEA3E0FF120A0337
:100EF800900148EBF0900144E0FCA3E0FDA3E0FE84
:100F0800A3E0FFE47B0AFAF9F8120A0390014412FD
:100F18000A95900148E0C3940574809480401F901E
:100F28000144E0FCA3E0FDA3E0FEA3E02401FFE40C
:100F38003EFEE43DFDE43CFC900144120A9590011C
:0B0F480044A3A3A3E0F404F5C2D2EC24
:010F5300227B
:10000300EF2441602024E0600A24E060042460704F
:100013001D800853B0F75390EF800643B008439018
:0F002300104390202243B0084390105390DF22E7
:100B2A00900143EDF0EF247F6056147003020BDE50
:100B3A00147003020C4724FC7003020D442407605E
:100B4A0003020D62900143E02427601D24436003E1
:100B5A00020D62E4900138F0900137F0900136F00E
:100B6A00900135746EF0020D62E4900138F0900144
:100B7A0037F090013604F0900135742CF0020D62C2
:100B8A00900143E0244E602324D960302475600329
:100B9A00020D62E4900138F0900137F0900136744A
:100BAA0002F09001357458F0020D62E4900138F0B9
:100BBA00900137F09001367404020D3BE49001383D
:100BCA00F0900137F09001367409F09001357460A5
:100BDA00F0020D62900143E0244E602024E6603466
:100BEA0024F3604824756003020D62E4900138F032
:100BFA00900137F09001367412020D22E490013808
:100C0A00F0900137F09001367425F0900135748028
:100C1A00F0020D62E4900138F0900137F09001364D
:100C2A007438F09001357440F0020D62E490013896
:100C3A00F0900137F0900136744B020D5C9001433D
:100C4A00E0120AD20C73640C84950C95980CA6CC0D
:100C5A000CB8D10CCAE60CDDE90CEFF30D00F40D6B
:100C6A0012F60D2BF800000D62E4900138F09001A5
:100C7A0037F09001367496020D5CE4900138F090DA
:100C8A000137F090013674DA020D22E4900138F04F
:100C9A00900137F090013674E1020D5CE49001385E
:100CAA00F090013704F090013674C2020D5CE490B2
:100CBA000138F090013704F090013674F4020D5CAB
:100CCA00E4900138F09001377403F090013674848F
:100CDA00020D5CE4900138F09001377403F0900142
:100CEA003674E8806DE4900138F09001377407F0AB
:100CFA0090013604805CE4900138F0900137740763
:100D0A00F090013674D0804AE4900138F0900137AF
:100D1A007409F09001367427F090013574C0F080A0
:100D2A0037E4900138F0900137740BF09001367473
:100D3A0071F090013574B0F0801E900143E0240DEB
:100D4A007016E4900138F0900137740EF090013675
:100D5A007410F0E4900135F07B017A017935020EC6
:010D6A008800
:0300430002005662
:0D005600C0E0C0F0C083C082C0D075D008EB
:1000630020D9030204A9E5D9543F7003020476247E
:10007300FE602424E2700302040024F06038240E9E
:1000830060030204A775D500E5D454FC4402F5D4FB
:10009300782576000204A720DE030204A79001411D
:1000A300E5DBF07826A6DB78687600E5D454F344E4
:1000B30008F5D40204A7900141E5DBF0E064086091
:1000C300030203C8900006E0FF900122E4F0A3EFCF
:1000D300F0900002E0FE900126F0900007E0700F20
:1000E300D3900123E0947F900122E0940040099093
:1000F3000122E4F0A3747FF0900141E4F090000149
:10010300E0900125F0900000E0546070030201D8F4
:10011300900125E024C0604224A6605324F6604287
:1001230024E4707A90012CE0FF2465F9E43410FA9A
:1001330090013E74FFF0A3EAF0A3E9F0900141744B
:1001430002F0EFC394187480948090012C5006E061
:100153002402F0804F7418F0804A9001417409F032
:10016300804243B004900126E0FF120003803590E3
:100173000127EEF0900003E0900128F0EE64127086
:1001830023E06413701E900004E0FF90012AF090B6
:100193000005E0FE90012BF0FD120B2A8006900172
:1001A3004174FFF0900141E0FF7E00D3900123E012
:1001B3009F900122E09E4005EEF0A3EFF090012214
:1001C300E0FEA3E0FFC39408EE940040057F08021D
:1001D3000276020276900125E0B40B00400302038D
:1001E300C69001EBF82828730203A30202EF02036F
:1001F300C60203270203C60202B102020C0203C6AF
:100203000202C10202E40203CE900003E024FE6076
:100213001904702C90013E74FFF0A37410F0A374C2
:100223002CF09001417412F0801C90013E74FFF099
:10023300A37410F0A3743EF09001417427F080067C
:1002430090014174FFF0900141E0FF7E00D39001E3
:1002530023E09F900122E09E4005EEF0A3EFF09093
:100263000122E0FEA3E0FFC39408EE940040047F64
:10027300088000900141EFF07E0078007C007D0152
:1002830090013EE0FBA3E0FAA3E0F91209459001D7
:1002930041E0FF7E00C3900123E09FF0900122E044
:1002A3009EF090013FEE8FF01209B10203CE900051
:1002B30002E0FF900122E4F0A3EFF00203CE9000EE
:1002C300E0E0900000F0C3900123E094019001224C
:1002D300E0940050030203CE9001417401F0020345
:1002E300CE900002E09000E0F00203CE900000E028
:1002F300541F6402702B900004E024FE60122481DA
:100303006014147046E5D454BC4402F5D40203CE01
:1003130053D4730203CEE5D254BC4402F5D2020394
:10032300CE0203C8900000E0541FFD7C00701E90B5
:100333000003E0FE900002E0FBEB64014E700C90C2
:1003430010459330E5030203CE807A8078ED640292
:100353004C704B900003E0FE900002E0FDED4E7008
:100363003B900005E0FE900004E0FDEDFFEE702AF7
:10037300EF24FE60112481601714701EE5D454BF6E
:100383004403F5D48045E5D4547F440CF5D4803B35
:10039300E5D254BF4403F5D28031802980278025DC
:1003A300900000E4F0A3F0900122E0FEA3E0FFC37D
:1003B3009402EE940090014140057402F0800CEF2A
:1003C300F08008800090014174FFF0900141E0FF4C
:1003D3007E00F4700C90012574FFF075DCCF0204ED
:1003E300A7D3EF9408EE648094805008900141E015
:1003F300F5DD800375DD0075DCC00204A7900125DF
:10040300E024FB6057147063900122E0FEA3E0FF39
:10041300C39408EE940040047F088000900141EFEC
:10042300F07E0078007C007D0190013EE0FBA3E0BC
:10043300FAA3E0F9120945900141E0FFFD7C00C3F6
:10044300900123E09DF0900122E09CF090013FECAD
:100453008DF01209B18FDD63DC408048900122A347
:10046300E0FFE5E354804FF5E3800375DD0075DCC1
:10047300028031900141E5DBF0900125E0640970D1
:100483001D900000E060087BFF7A0F79ED800C90EF
:100493000000E070097BFF7A10790512057B75DD9A
:1004A3000075DC00C2D930D82775DC0275D212750D
:1004B300D41275E300C2DAC2D9C2D8782376000811
:1004C3007600782776001876009000E0E4F018F6BE
:1004D30030DA2CC2DAE5DA30E2287BFF7A10791EB3
:1004E30012057BE5A220E7FB75A15575A1AA75A9A5
:1004F300C143870275A15575A1AA75A9008003752B
:02050300D8FF1F
:0B050500D0D0D082D083D0F0D0E03204
:0300530002119007
:10119000C0E0C0D075D000C00030C01C7823E60687
:1011A0002428F8A6C17827067823E6C394407480E3
:0F11B000948040027600C2C0D000D0D0D0E03290
:100D6B00E490016CF0A3F0A3F0A3F05392BF539364
:100D7B00BF43928053937F4396085397F743960450
:100D8B005397FB4392105393EF4392205393DF43BC
:100D9B0090104390201212957F0A7E001212671258
:100DAB000F5412110B7BFF7A10792112057B121253
:100DBB004F121213120032E4F5DDF5D3F5D5900086
:100DCB00E0E060FA7826E6601B7868E6062408F512
:100DDB0082E43400F583E0FF1212B7782616E67032
:100DEB000353D4F37827E6600690016EE004F078A5
:100DFB0025E670CA7827E690016BF0E0FFD39400EC
:100E0B007480948040B8D3EF941F74809480500CFE
:100E1B0090016EE094647480948040A2E490016E23
:100E2B00F090016BE0FF7824E62FFFE433FED3EF65
:100E3B009440EE648094804004744096F090016B73
:100E4B00E0FFC37827E69FF67E007824E62428F996
:100E5B00E4FAFB78487C007D0112094590016BE0B8
:100E6B00FF782426F6E6C39440748094804002E415
:0D0E7B00F68FD553D4FC78257601020DC901
:1012950075A15575A1AAE5B954F84406F5B9E4F563
:0212A500A12284
:10123500EF4E601505A105A105A105A105A105A113
:0A12450005A1EF1F70EA1E80E722EA
:10126700AD07AC06ED4C600E7FE87E03121235ED3C
:071277001D70F11C80EE2246
:04004E0043C6102273
:100F5400C29FD29EC29DC2CDC2CC438780900170F5
:100F6400120AA100000082E47B0AFAF9F8900170E9
:100F7400E0FCA3E0FDA3E0FEA3E0FF120A0390015E
:100F840074EBF0900170E0FCA3E0FDA3E0FEA3E0AD
:100F9400FFE47B0AFAF9F8120A03900170120A9529
:100FA400900174E0C3940574809480401F90017094
:100FB400E0FCA3E0FDA3E0FEA3E02401FFE43EFE89
:100FC400E43DFDE43CFC900170120A95E589540F60
:100FD4004420F58943C9A0900170A3A3A3E0F404BD
:080FE400F58DD28ED299D29C4A
:010FEC0022E2
:080046003098FDC298AF992229
:0812A7008F993099FDC29922D4
:10110B00C2C7D2C5D2C4900170120AA100000082DE
:10111B00E47B0AFAF9F8900170E0FCA3E0FDA3E090
:10112B00FEA3E0FF120A03900174EBF0900170E054
:10113B00FCA3E0FDA3E0FEA3E0FFE47B0AFAF9F8D1
:10114B00120A03900170120A95900174E0C3940582
:10115B0074809480401F900170E0FCA3E0FDA3E03D
:10116B00FEA3E02401FFE43EFEE43DFDE43CFC90E5
:10117B000170120A95900170A3A3A3E0F404F5C2C9
:04118B00D2ECD2AF21
:01118F00223D
:0812AF0030C0FDC2C0AFC12236
:0812B7008FC130C1FDC2C1224C
:10127E0075A15575A1AAEF600543B101800353B165
:07128E00FEE4F5A1F5FF22CB
:0312BF008FFF227C
:0300000002107F6C
:0C107F00787FE4F6D8FD7581680210C689
:10087500E709F608DFFA8046E709F208DFFA803E65
:1008850088828C83E709F0A3DFFA8032E309F60852
:10089500DFFA8078E309F208DFFA807088828C83BA
:1008A500E309F0A3DFFA806489828A83E0A3F6086E
:1008B500DFFA805889828A83E0A3F208DFFA804C48
:1008C50080D280FA80C680D4806980F2803380101F
:1008D50080A680EA809A80A880DA80E280CA803388
:1008E50089828A83ECFAE493A3C8C582C8CCC58300
:1008F500CCF0A3C8C582C8CCC583CCDFE9DEE780D0
:100905000D89828A83E493A3F608DFF9ECFAA9F04E
:10091500EDFB2289828A83ECFAE0A3C8C582C8CCA4
:10092500C583CCF0A3C8C582C8CCC583CCDFEADEBD
:10093500E880DB89828A83E493A3F208DFF980CC1F
:1009450088F0EF60010E4E60C388F0ED2402B40418
:100955000050B9F582EB2402B4040050AF232345BF
:0609650082239008C57317
:10096B00BB010689828A83E0225002E722BBFE028A
:09097B00E32289828A83E49322BD
:10098400BB010CE58229F582E5833AF583E0225028
:1009940006E92582F8E622BBFE06E92582F8E22272
:0D09A400E58229F582E5833AF583E493228C
:1009B100C5F0F8A3E028F0C5F0F8E58215827002D1
:0609C1001583E038F0226E
:1009C70075F008758200EF2FFFEE33FECD33CDCCE7
:1009D70033CCC58233C5829BED9AEC99E58298406A
:1009E7000CF582EE9BFEED9AFDEC99FC0FD5F0D647
:1009F700E4CEFBE4CDFAE4CCF9A88222B800C1B971
:100A07000059BA002DEC8BF084CFCECDFCE5F0CBAE
:100A1700F97818EF2FFFEE33FEED33FDEC33FCEBE7
:100A270033FB10D703994004EB99FB0FD8E5E4F9A2
:100A3700FA227818EF2FFFEE33FEED33FDEC33FC8F
:100A4700C933C910D7059BE99A4007EC9BFCE99A83
:100A5700F90FD8E0E4C9FAE4CCFB2275F010EF2FC8
:100A6700FFEE33FEED33FDCC33CCC833C810D707C8
:100A77009BEC9AE899400AED9BFDEC9AFCE899F803
:0E0A87000FD5F0DAE4CDFBE4CCFAE4C8F92296
:0C0A9500ECF0A3EDF0A3EEF0A3EFF022D4
:100AA100A8828583F0D083D082120AB8120AB812C4
:100AB1000AB8120AB8E473E493A3C583C5F0C583E9
:100AC100C8C582C8F0A3C583C5F0C583C8C582C89F
:010AD1002202
:100AD200D083D082F8E4937012740193700DA3A3B3
:100AE20093F8740193F5828883E4737402936860C7
:060AF200EFA3A3A380DFC7
:10051000E5152473F582E43401F583E00515229096
:100520000170301003900173E475F001120B0A02A0
:10053000096B2009E97F2ED2098018EF540F24900F
:10054000D43440D4FF300D0BEF24BFB41A00500355
:100550002461FFE516600215160519E519700205FC
:100560001830100E900170E475F001120B0AEF02C2
:100570000AF80211EC7403D2108003E4C210F515DE
:10058000900170120B21E4F516F518F519E51660C7
:10059000077F2012055380F57517FFC20AC209C2F2
:1005A0000BC20CC20EC20FC21112051FFF700D301C
:1005B00010057F00120564AF19AE1822B4255FC282
:1005C000D5C20D12051FFF24D0B40A00501A75F0D1
:1005D0000A781630D50508B6FF0106C6A426F6200F
:1005E000D5047002D20C80D924CFB41A00EF500485
:1005F000C2E5D20D020765D20A80C6D20980C0D2F8
:100600000B80BCD2D580BAD20E80B47F20120553A5
:10061000200B077401B5160040F1120510FF1205FA
:100620005302058DD211D20F8095120510FB1205D1
:1006300010FA120510F94A4B700679367A087BFFDA
:10064000200B2EE516602A7E008E8275830012092B
:100650008460060EEE651770F0C2D5EBC0E0EAC00C
:10066000E0E9C0E0EE1207ACD0E0F9D0E0FAD0E06B
:10067000FB12096BFF60AAEBC0E0EAC0E0E9C0E052
:10068000120553D0E02401F9D0E03400FAD0E0FBA9
:10069000E5170460DCD517D980877BFF7A0779A836
:1006A000D20B809C791080027908C20FC211800899
:1006B000D2D5790A8004790AC2D5E517047002F50B
:1006C00017E4FAFDFEFF120510FC7B08200A131246
:1006D0000510FD7B1030090A120510FE120510FFEF
:1006E0007B20EC3382D592D55013C3E43009069FAA
:1006F000FFE49EFEE4200A039DFDE49CFCE4CBF8AD
:10070000C20AEC700CCFCECDCCE824F8F870F380A0
:1007100017C3EF33FFEE33FEED33FDEC33FCEB3369
:10072000FB994002FB0FD8E9EB300A05F8D0E0C492
:1007300048B20AC0E00AEC4D4E4F78207B0070C2F0
:10074000EAB5170040BCC0E01207AED0F0D0E02000
:100750000A04C4C0E0C4B20AC0F012053CD0F0D50F
:10076000F0EB02058D120AD2062A5306A45805FBA7
:100770004C05F74206A84F06B04406B049061043A0
:0807800006B655069A46069ADA
:1007880045069A4708565005FF2D06032E06262BC8
:10079800060723062420083F2A05BF480000061E36
:1007A8003F3F3F00790AA2D5200C14300E09B9103A
:1007B800020404B9080104A2D5200F025001042044
:1007C8000B68920BB516005034C0E07F20300C192E
:1007D8007F30A20B720F720E500F120805C20BC2A7
:1007E8000FC20EC2117F30800F300E03E9C0E01235
:1007F8000553300E03D0E0F9D0E0B516CC300E1713
:100808007F30B9100C1205537F58300D077F788060
:1008180003B90803120553300B057F2D0205537FDA
:10082800202011F87F2B200FF322920B80CF286E07
:10083800756C6C2900D20A120510300AF8C20A78C1
:100848001630D50108F60205BF2D50434958120548
:10085800102403B405004001E490085193120544A4
:0D086800743A120544D20C7516040206A461
:10108B00020D6BE493A3F8E493A34003F68001F203
:10109B0008DFF48029E493A3F85407240CC8C33366
:1010AB00C4540F4420C8834004F456800146F6DF35
:1010BB00E4800B01020408102040809011BFE47EF5
:1010CB00019360BCA3FF543F30E509541FFEE4932A
:1010DB00A360010ECF54C025E060A840B8E493A3F1
:1010EB00FAE493A3F8E493A3C8C582C8CAC583CA1C
:1010FB00F0A3C8C582C8CAC583CADFE9DEE780BED4
:0111EB000003
:100AF800BB010689828A83F0225002F722BBFE01DD
:020B0800F322D6
:100B0A00F8E0FBA3A3E0F925F0F0E5821582700274
:070B1A001583E0FA38F02218
:090B2100EBF0A3EAF0A3E9F022D5
:1011EC00EFB40A07740D1211F7740A309811A8990C
:1011FC00B8130CC2983098FDA899C298B811F63063
:07120C0099FDC299F599223A
:00000001FF
