:101006004C69676874206F6E204E756D204C6F6357
:101016006B204C4544210A004C69676874206F6652
:1010260066204E756D204C6F636B204C4544210A3B
:10103600006572726F720D0A007A7A0073746172BB
:1010460074202E2E2E0A0012011001FF00000886C1
:101056001A2375630200020001090227000101003C
:1010660080F00904000003FF010200070582022048
:1010760000000705020220000007058103080001A1
:101086003000C300FFEC9FECFFECDFECDFECDFECA5
:101096009FEC9FEC9FEC9FECFFEC1C03550053006C
:1010A600420032002E0030002D0053006500720011
:0610B600690061006C00FE
:1000030041012400410126004101290041012C0046
:1000130047013900E100000000080123000124002A
:1000230001270001260001A8000125004401350035
:0300330000FFFECD
:10138A00E4F5E253E27F43E229F5E353E2BF53D1A6
:08139A00FB75D18043D1012253
:1013E20043E10443E10243E10143D81FD2EAD2AF11
:0113F20022D8
:10131E007400FE74A08EEFF5EE7400FE74088EE578
:10132E00F5E475EBCC75D41275D2127400FE740010
:0B133E008EEDF5EC75EA4075DC022234
:100F3A0090014D120AFB000000009000031209DE26
:100F4A0090014DF09000021209DE90014EF09000DF
:100F5A00011209DE90014FF01209C5900150F0C24A
:100F6A00EC90014DE0F8A3E0F9A3E0FAA3E0FB7FDF
:100F7A00007E1C7D4E7C0E120A5DE47B10FAF9F8A5
:100F8A00120A5D900148120AEFE47B0AFAF9F89016
:100F9A000148E0FCA3E0FDA3E0FEA3E0FF120A5D26
:100FAA00EB90014CF0900148E0FCA3E0FDA3E0FEC9
:100FBA00A3E0FFE47B0AFAF9F8120A5D90014812ED
:100FCA000AEF90014CE0C3940574809480401F900E
:100FDA000148E0FCA3E0FDA3E0FEA3E02401FFE456
:100FEA003EFEE43DFDE43CFC900148120AEF90010C
:0B0FFA0048A3A3A3E0F404F5C2D2EC6E
:0110050022C8
:1012C100EF2441602024E0600A24E060042460707F
:1012D1001D800853B0F75390EF800643B008439048
:0F12E100104390202243B0084390105390DF2217
:0C003700E47827F67824F618F6C2C02200
:100B8400900147EDF0EF247F6056147003020C3897
:100B9400147003020CA124FC7003020D9E24076050
:100BA40003020DBC900147E02427601D2443600329
:100BB400020DBCE490013CF090013BF090013AF04E
:100BC400900139746EF0020DBCE490013CF0900188
:100BD4003BF090013A04F0900139742CF0020DBC02
:100BE400900147E0244E602324D9603024756003CB
:100BF400020DBCE490013CF090013BF090013A748A
:100C040002F09001397458F0020DBCE490013CF0FC
:100C140090013BF090013A7404020D95E490013C7C
:100C2400F090013BF090013A7409F090013974603E
:100C3400F0020DBC900147E0244E602024E66034AD
:100C440024F3604824756003020DBCE490013CF079
:100C540090013BF090013A7412020D7CE490013C47
:100C6400F090013BF090013A7425F09001397480C2
:100C7400F0020DBCE490013CF090013BF090013A8D
:100C84007438F09001397440F0020DBCE490013CDA
:100C9400F090013BF090013A744B020DB69001477D
:100CA400E0120B2C0CCD640CDE950CEF980D00CCEF
:100CB4000D12D10D24E60D37E90D49F30D5AF40D4B
:100CC4006CF60D85F800000DBCE490013CF0900139
:100CD4003BF090013A7496020DB6E490013CF0901A
:100CE400013BF090013A74DA020D7CE490013CF08F
:100CF40090013BF090013A74E1020DB6E490013C9E
:100D0400F090013B04F090013A74C2020DB6E490F5
:100D1400013CF090013B04F090013A74F4020DB6EA
:100D2400E490013CF090013B7403F090013A748428
:100D3400020DB6E490013CF090013B7403F0900185
:100D44003A74E8806DE490013CF090013B7407F044
:100D540090013A04805CE490013CF090013B7407FC
:100D6400F090013A74D0804AE490013CF090013B49
:100D74007409F090013A7427F090013974C0F0803E
:100D840037E490013CF090013B740BF090013A740D
:100D940071F090013974B0F0801E900147E0240D89
:100DA4007016E490013CF090013B740EF090013A0F
:100DB4007410F0E4900139F07B017A017939020F63
:010DC4003AF4
:0300430002005662
:0D005600C0E0C0F0C083C082C0D075D008EB
:1000630020D903020503E5D9543F70030204C524D4
:10007300FE602424E2700302044A24F06038240E54
:1000830060030204F875D500E5D454FC4402F5D4AA
:100093007825760002050120DE0302050190014563
:1000A300E5DBF07826A6DB78A87600E5D454F344A4
:1000B30008F5D4020501900145E5DBF0E064086032
:1000C30003020412900006E0FF900122E4F0A3EF84
:1000D300F0900002E0FE900126F0900007E0700F20
:1000E300D3900123E0947F900122E0940040099093
:1000F3000122E4F0A3747FF0900145E4F090000145
:10010300E0900125F0900000E054607003020201CA
:10011300900125E024C0604924A6605D24F9607243
:1001230024FD604524E460030201C890012CE0FF34
:100133002486F9E43410FA90014274FFF0A3EAF044
:10014300A3E9F09001457402F0EFC394187480940E
:100153008090012C5006E02402F0806F7418F08028
:100163006A9001457409F0806243B004120037902D
:100173000126E0FF1212C18052900127EEF0900099
:1001830003E0900128F0EE64127040E06413703BCA
:10019300801B900002E0FF900127F0900003E090A5
:1001A3000128F0EF649C7023E064C3701E90000488
:1001B300E0FF90012AF0900005E0FE90012BF0FD96
:1001C300120B84800690014574FFF0900145E0FF17
:1001D3007E00D3900123E09F900122E09E4005EE34
:1001E300F0A3EFF0900122E0FEA3E0FFC39408EE3A
:1001F300940040077D08EDFF0202BD0202BD90019D
:1002030025E0B40B004003020410900214F82828E0
:10021300730203ED02033902041002037102041096
:100223000202FB02023502041002030B02032E0238
:100233000418900003E024FE601D14603024027053
:100243004490014274FFF0A37410F0A3744DF09036
:1002530001457412F0803490014274FFF0A37410CE
:10026300F0A3745FF09001457427F0801E90014263
:1002730074FFF0A37410F0A374A0F0900006E09054
:100283000145F0800690014574FFF0900145E0FFC1
:100293007E00D3900123E09F900122E09E4005EE73
:1002A300F0A3EFF0900122E0FEA3E0FFC39408EE79
:1002B300940040067D08EDFF8000900145EFF07E3D
:1002C300007400F87400FC7401FD900142E0FBA38C
:1002D300E0FAA3E0F912099F900145E0FF7E00C315
:1002E300900123E09FF0900122E09EF0900143EE05
:1002F3008FF0120A0B020418900002E0FF90012213
:10030300E4F0A3EFF00204189000E0E0900000F0A6
:10031300C3900123E09401900122E0940050030272
:1003230004189001457401F0020418900002E09053
:1003330000E0F0020418900000E0541F6402702BE8
:10034300900004E024FE601224816014147046E5DA
:10035300D454BC4402F5D402041853D473020418D1
:10036300E5D254BC4402F5D20204180204129000F0
:1003730000E0541FFD7C00701E900003E0FE90001F
:1003830002E0FBEB64014E700C9010669330E503C2
:10039300020418807A8078ED64024C704B9000035D
:1003A300E0FE900002E0FDED4E703B900005E0FEA4
:1003B300900004E0FDEDFFEE702AEF24FE601124AF
:1003C30081601714701EE5D454BF4403F5D48045EF
:1003D300E5D4547F440CF5D4803BE5D254BF4403A9
:1003E300F5D28031802980278025900000E4F0A396
:1003F300F0900122E0FEA3E0FFC39402EE9400908C
:10040300014540057402F0800CEFF08008800090F5
:10041300014574FFF0900145E0FF7E00F4700C90FD
:10042300012574FFF075DCCF020501D3EF9408EECC
:10043300648094805008900145E0F5DD800375DD0C
:100443000075DCC0020501900125E024FB605C140B
:100453007068900122E0FEA3E0FFC39408EE9400CD
:1004630040067D08EDFF8000900145EFF07E0074AB
:1004730000F87400FC7401FD900142E0FBA3E0FA74
:10048300A3E0F912099F900145E0FFFD7C00C390B2
:100493000123E09DF0900122E09CF0900143EC8D5C
:1004A300F0120A0B8FDD63DC408053900122A3E03E
:1004B300FFE5E354804FF5E3800375DD0075DC024F
:1004C300803C900145E5DBF0900125E06409701D57
:1004D300900000E060087BFF7A107906800C9000A2
:1004E30000E070097BFF7A10791E1205D575DD00D7
:1004F30075DC0080097BFF7A1079371205D5C2D9E4
:1005030030D82775DC0275D21275D41275E300C298
:10051300DAC2D9C2D8782376000876007827760025
:100523001876009000E0E4F018F630DA2CC2DAE531
:10053300DA30E2287BFF7A10793F1205D5E5A22055
:10054300E7FB75A15575A1AA75A9C143870275A1DA
:0C0553005575A1AA75A900800375D8FF9A
:0B055F00D0D0D082D083D0F0D0E032AA
:030053000212F0A6
:1012F000C0E0C0D0E8C0E030C01C7823E606242857
:10130000F8A6C17827067823E6C394807480948079
:0E13100040027600C2C0D0E0F8D0D0D0E0326B
:10126600E4F5E253E27F43E229F5E353E2BF53D1CB
:10127600FB75D18043D1017400FE74008EEDF5EC50
:1012860075DC02E4F5DD75EBCC75EA407400FE749E
:10129600A08EEFF5EE75D212E4F5D37400FE740855
:1012A6008EE5F5E475D412E4F5D543E10443E10295
:0B12B60043E10143D81FD2EAD2AF226F
:100DC500E4900170F0A3F0A3F0A3F01213D07F64B8
:100DD5007E001213A25392BF5393BF439280539345
:100DE5007F4396085397F74396045397FB43921016
:100DF5005393EF4392205393DF4390104390207F0A
:100E0500C87E001213A21210BC1211E17BFF7A10EA
:100E150079421205D512126612003743B0049000CC
:100E2500E0E060FA7826E6601B78A8E6062408F577
:100E350082E43400F583E0FF121403782616E67089
:100E45000353D4F37827E66006900172E004F07846
:100E550025E66003020EF77827E690016FF0E0FFC4
:100E6500D394007480948040B5D3EF941F7480941C
:100E750080500C900172E0946474809480409FE4EB
:100E8500900172F090016FE0FF7824E62FFFE433C4
:100E9500FED3EF9480EE648094804004748096F0D5
:100EA50090016FE0FFC37827E69FF67E007824E681
:100EB5002428F9E4FBC0E0C0E0E9C0E00B7448F881
:100EC5007400FCEBFDD0E0F9D0E0FAD0E0FB1209AC
:100ED5009F90016FE0FF782426F6E6C39480748026
:100EE50094804002E4F68FD57825760153D4FC0230
:100EF5000E237827E690016FF0E0FF7E00D3940083
:100F0500748094805003020E23D3EF941F74809451
:100F150080500F900172E0946474809480500302B5
:100F25000E23E4900172F090016FE0FFC37827E68D
:050F35009FF6020E23EF
:1013D00075A15575A1AAE5B954F84406F5B9E4F527
:0213E000A12248
:10137000EF4E601505A105A105A105A105A105A1D7
:0A13800005A1EF1F70EA1E80E722AE
:1013A200AD07AC06ED4C600E7FE87E03121370EDC4
:0713B2001D70F11C80EE220A
:04004E0043C6102273
:1010BC00C29FD29EC29DC2CDC2CC43878090017488
:1010CC00120AFB00000082E47B0AFAF9F890017422
:1010DC00E0FCA3E0FDA3E0FEA3E0FF120A5D90019B
:1010EC0078EBF0900174E0FCA3E0FDA3E0FEA3E03C
:1010FC00FFE47B0AFAF9F8120A5D900174120AEF08
:10110C00900178E0C3940574809480401F90017422
:10111C00E0FCA3E0FDA3E0FEA3E02401FFE43EFE1F
:10112C00E43DFDE43CFC900174120AEFE589540F98
:10113C004420F58943C9A0900174A3A3A3E0F4044F
:08114C00F58DD28ED299D29CE0
:011154002278
:080046003098FDC298AF992229
:0813F3008F993099FDC2992287
:1011E100C2C7D2C5D2C4900174120AFB00000082AA
:1011F100E47B0AFAF9F8900174E0FCA3E0FDA3E0B6
:10120100FEA3E0FF120A5D900178EBF0900174E01B
:10121100FCA3E0FDA3E0FEA3E0FFE47B0AFAF9F8FA
:10122100120A5D900174120AEF900178E0C39405EF
:1012310074809480401F900174E0FCA3E0FDA3E062
:10124100FEA3E02401FFE43EFEE43DFDE43CFC900E
:101251000174120AEF900174A3A3A3E0F404F5C290
:04126100D2ECD2AF4A
:011265002266
:0813FB0030C0FDC2C0AFC122E9
:081403008FC130C1FDC2C122FE
:1013B90075A15575A1AAEF600543B101800353B129
:0713C900FEE4F5A1F5FF228F
:03140B008FFF222E
:0300000002115595
:0C115500787FE4F6D8FD7581A802119C9B
:1008CF00E709F608DFFA8046E709F208DFFA803E0B
:1008DF0088828C83E709F0A3DFFA8032E309F608F8
:1008EF00DFFA8078E309F208DFFA807088828C8360
:1008FF00E309F0A3DFFA806489828A83E0A3F60814
:10090F00DFFA805889828A83E0A3F208DFFA804CED
:10091F0080D280FA80C680D4806980F280338010C4
:10092F0080A680EA809A80A880DA80E280CA80332D
:10093F0089828A83ECFAE493A3C8C582C8CCC583A5
:10094F00CCF0A3C8C582C8CCC583CCDFE9DEE78075
:10095F000D89828A83E493A3F608DFF9ECFAA9F0F4
:10096F00EDFB2289828A83ECFAE0A3C8C582C8CC4A
:10097F00C583CCF0A3C8C582C8CCC583CCDFEADE63
:10098F00E880DB89828A83E493A3F208DFF980CCC5
:10099F0088F0EF60010E4E60C388F0ED2402B404BE
:1009AF000050B9F582EB2402B4040050AF23234565
:0609BF00822390091F7362
:1009C500BB010689828A83E0225002E722BBFE0230
:0909D500E32289828A83E4932263
:1009DE00BB010CE58229F582E5833AF583E02250CE
:1009EE0006E92582F8E622BBFE06E92582F8E22218
:0D09FE00E58229F582E5833AF583E4932232
:100A0B00C5F0F8A3E028F0C5F0F8E5821582700276
:060A1B001583E038F02213
:100A210075F008758200EF2FFFEE33FECD33CDCC8C
:100A310033CCC58233C5829BED9AEC99E58298400F
:100A41000CF582EE9BFEED9AFDEC99FC0FD5F0D6EC
:100A5100E4CEFBE4CDFAE4CCF9A88222B800C1B916
:100A61000059BA002DEC8BF084CFCECDFCE5F0CB54
:100A7100F97818EF2FFFEE33FEED33FDEC33FCEB8D
:100A810033FB10D703994004EB99FB0FD8E5E4F948
:100A9100FA227818EF2FFFEE33FEED33FDEC33FC35
:100AA100C933C910D7059BE99A4007EC9BFCE99A29
:100AB100F90FD8E0E4C9FAE4CCFB2275F010EF2F6E
:100AC100FFEE33FEED33FDCC33CCC833C810D7076E
:100AD1009BEC9AE899400AED9BFDEC9AFCE899F8A9
:0E0AE1000FD5F0DAE4CDFBE4CCFAE4C8F9223C
:0C0AEF00ECF0A3EDF0A3EEF0A3EFF0227A
:100AFB00A8828583F0D083D082120B12120B1212B4
:100B0B000B12120B12E473E493A3C583C5F0C583D8
:100B1B00C8C582C8F0A3C583C5F0C583C8C582C844
:010B2B0022A7
:100B2C00D083D082F8E4937012740193700DA3A358
:100B3C0093F8740193F5828883E47374029368606C
:060B4C00EFA3A3A380DF6C
:10056A00E5152477F582E43401F583E00515229038
:10057A000174301003900177E475F001120B6402E4
:10058A0009C52009E97F2ED2098018EF540F24905B
:10059A00D43440D4FF300D0BEF24BFB41A005003FB
:1005AA002461FFE516600215160519E519700205A2
:1005BA001830100E900174E475F001120B64EF020A
:1005CA000B520213497403D2108003E4C210F515CA
:1005DA00900174120B7BE4F516F518F519E516600F
:1005EA00077F201205AD80F57517FFC20AC209C23E
:1005FA000BC20CC20EC20FC211120579FF700D3068
:10060A0010057F001205BEAF19AE1822B4255FC2CD
:10061A00D5C20D120579FF24D0B40A00501A75F01C
:10062A000A781630D50508B6FF0106C6A426F620B4
:10063A00D5047002D20C80D924CFB41A00EF50042A
:10064A00C2E5D20D0207BFD20A80C6D20980C0D243
:10065A000B80BCD2D580BAD20E80B47F201205ADF1
:10066A00200B077401B5160040F112056AFF120546
:10067A00AD0205E7D211D20F809512056AFB120569
:10068A006AFA12056AF94A4B700679907A087BFF72
:10069A00200B2EE516602A7E008E827583001209D1
:1006AA00DE60060EEE651770F0C2D5EBC0E0EAC058
:1006BA00E0E9C0E0EE120806D0E0F9D0E0FAD0E0B6
:1006CA00FB1209C5FF60AAEBC0E0EAC0E0E9C0E09E
:1006DA001205ADD0E02401F9D0E03400FAD0E0FBF5
:1006EA00E5170460DCD517D980877BFF7A08790281
:1006FA00D20B809C791080027908C20FC21180083F
:10070A00D2D5790A8004790AC2D5E517047002F5B0
:10071A0017E4FAFDFEFF12056AFC7B08200A131291
:10072A00056AFD7B1030090A12056AFE12056AFF86
:10073A007B20EC3382D592D55013C3E43009069F4F
:10074A00FFE49EFEE4200A039DFDE49CFCE4CBF852
:10075A00C20AEC700CCFCECDCCE824F8F870F38046
:10076A0017C3EF33FFEE33FEED33FDEC33FCEB330F
:10077A00FB994002FB0FD8E9EB300A05F8D0E0C438
:10078A0048B20AC0E00AEC4D4E4F78207B0070C296
:10079A00EAB5170040BCC0E0120808D0F0D0E0204B
:1007AA000A04C4C0E0C4B20AC0F0120596D0F0D55B
:1007BA00F0EB0205E7120B2C06845306FE58065589
:1007CA004C06514207024F070A44070A49066A4380
:0807DA0007105506F44606F471
:1007E2004506F44708B05006592D065D2E06802BAB
:1007F200066123067E2008992A0619480000067819
:100802003F3F3F00790AA2D5200C14300E09B910DF
:10081200020404B9080104A2D5200F0250010420E9
:100822000B68920BB516005034C0E07F20300C19D3
:100832007F30A20B720F720E500F12085FC20BC2F2
:100842000FC20EC2117F30800F300E03E9C0E012DA
:1008520005AD300E03D0E0F9D0E0B516CC300E175E
:100862007F30B9100C1205AD7F58300D077F7880AC
:1008720003B908031205AD300B057F2D0205AD7FCC
:10088200202011F87F2B200FF322920B80CF286EAD
:10089200756C6C2900D20A12056A300AF8C20A780D
:1008A2001630D50108F60206192D50434958120593
:1008B2006A2403B405004001E49008AB9312059E3C
:0D08C200743A12059ED20C7516040206FE53
:10116100020DC5E493A3F8E493A34003F68001F2D2
:1011710008DFF48029E493A3F85407240CC8C3338F
:10118100C4540F4420C8834004F456800146F6DF5E
:10119100E4800B0102040810204080900003E47EEB
:1011A100019360BCA3FF543F30E509541FFEE49353
:1011B100A360010ECF54C025E060A840B8E493A31A
:1011C100FAE493A3F8E493A3C8C582C8CAC583CA45
:1011D100F0A3C8C582C8CAC583CADFE9DEE780BEFD
:0100360000C9
:100B5200BB010689828A83F0225002F722BBFE0182
:020B6200F3227C
:100B6400F8E0FBA3A3E0F925F0F0E582158270021A
:070B74001583E0FA38F022BE
:090B7B00EBF0A3EAF0A3E9F0227B
:10134900EFB40A07740D121354740A309811A8994E
:10135900B8130CC2983098FDA899C298B811F63004
:0713690099FDC299F59922DC
:00000001FF
